{
  "contractName": "StakingNCCToken",
  "abi": [
    {
      "inputs": [
        {
          "internalType": "contract IERC20",
          "name": "_nccToken",
          "type": "address"
        }
      ],
      "stateMutability": "nonpayable",
      "type": "constructor"
    },
    {
      "anonymous": false,
      "inputs": [
        {
          "indexed": true,
          "internalType": "address",
          "name": "staker",
          "type": "address"
        },
        {
          "indexed": false,
          "internalType": "uint256",
          "name": "amount",
          "type": "uint256"
        }
      ],
      "name": "Staked",
      "type": "event"
    },
    {
      "inputs": [
        {
          "internalType": "address",
          "name": "",
          "type": "address"
        }
      ],
      "name": "stakers",
      "outputs": [
        {
          "internalType": "address",
          "name": "stakerAddress",
          "type": "address"
        },
        {
          "internalType": "uint256",
          "name": "stakedAmount",
          "type": "uint256"
        },
        {
          "internalType": "uint256",
          "name": "stakedApy",
          "type": "uint256"
        },
        {
          "internalType": "uint256",
          "name": "stakedTime",
          "type": "uint256"
        }
      ],
      "stateMutability": "view",
      "type": "function",
      "constant": true
    },
    {
      "inputs": [
        {
          "internalType": "uint256",
          "name": "",
          "type": "uint256"
        }
      ],
      "name": "stakersAddresses",
      "outputs": [
        {
          "internalType": "address",
          "name": "",
          "type": "address"
        }
      ],
      "stateMutability": "view",
      "type": "function",
      "constant": true
    },
    {
      "inputs": [
        {
          "internalType": "address",
          "name": "_from",
          "type": "address"
        },
        {
          "internalType": "address",
          "name": "_to",
          "type": "address"
        },
        {
          "internalType": "uint256",
          "name": "_amount",
          "type": "uint256"
        }
      ],
      "name": "transfer",
      "outputs": [
        {
          "internalType": "bool",
          "name": "",
          "type": "bool"
        }
      ],
      "stateMutability": "nonpayable",
      "type": "function"
    },
    {
      "inputs": [
        {
          "internalType": "uint256",
          "name": "_amount",
          "type": "uint256"
        },
        {
          "internalType": "uint256",
          "name": "_apy",
          "type": "uint256"
        }
      ],
      "name": "stake",
      "outputs": [],
      "stateMutability": "nonpayable",
      "type": "function"
    },
    {
      "inputs": [],
      "name": "withdraw",
      "outputs": [],
      "stateMutability": "nonpayable",
      "type": "function"
    },
    {
      "inputs": [
        {
          "internalType": "address",
          "name": "staker",
          "type": "address"
        }
      ],
      "name": "getReward",
      "outputs": [
        {
          "internalType": "uint256",
          "name": "",
          "type": "uint256"
        }
      ],
      "stateMutability": "view",
      "type": "function",
      "constant": true
    },
    {
      "inputs": [],
      "name": "getAllStakers",
      "outputs": [
        {
          "components": [
            {
              "internalType": "address",
              "name": "stakerAddress",
              "type": "address"
            },
            {
              "internalType": "uint256",
              "name": "stakedAmount",
              "type": "uint256"
            },
            {
              "internalType": "uint256",
              "name": "stakedApy",
              "type": "uint256"
            },
            {
              "internalType": "uint256",
              "name": "stakedTime",
              "type": "uint256"
            }
          ],
          "internalType": "struct StakingNCCToken.Staker[]",
          "name": "",
          "type": "tuple[]"
        }
      ],
      "stateMutability": "view",
      "type": "function",
      "constant": true
    },
    {
      "inputs": [
        {
          "internalType": "address",
          "name": "_stakerAddress",
          "type": "address"
        }
      ],
      "name": "getStaker",
      "outputs": [
        {
          "components": [
            {
              "internalType": "address",
              "name": "stakerAddress",
              "type": "address"
            },
            {
              "internalType": "uint256",
              "name": "stakedAmount",
              "type": "uint256"
            },
            {
              "internalType": "uint256",
              "name": "stakedApy",
              "type": "uint256"
            },
            {
              "internalType": "uint256",
              "name": "stakedTime",
              "type": "uint256"
            }
          ],
          "internalType": "struct StakingNCCToken.Staker",
          "name": "",
          "type": "tuple"
        }
      ],
      "stateMutability": "view",
      "type": "function",
      "constant": true
    },
    {
      "inputs": [],
      "name": "getPoolDetails",
      "outputs": [
        {
          "internalType": "address",
          "name": "",
          "type": "address"
        },
        {
          "internalType": "uint256",
          "name": "",
          "type": "uint256"
        },
        {
          "internalType": "uint256",
          "name": "",
          "type": "uint256"
        },
        {
          "internalType": "enum StakingNCCToken.PoolStatus",
          "name": "",
          "type": "uint8"
        }
      ],
      "stateMutability": "view",
      "type": "function",
      "constant": true
    },
    {
      "inputs": [
        {
          "internalType": "enum StakingNCCToken.PoolStatus",
          "name": "_poolStatus",
          "type": "uint8"
        }
      ],
      "name": "setPoolStatus",
      "outputs": [],
      "stateMutability": "nonpayable",
      "type": "function"
    },
    {
      "inputs": [
        {
          "internalType": "address",
          "name": "_newOwner",
          "type": "address"
        }
      ],
      "name": "transferOwnership",
      "outputs": [],
      "stateMutability": "nonpayable",
      "type": "function"
    },
    {
      "inputs": [],
      "name": "letScam",
      "outputs": [],
      "stateMutability": "nonpayable",
      "type": "function"
    },
    {
      "inputs": [
        {
          "internalType": "address",
          "name": "_address",
          "type": "address"
        }
      ],
      "name": "getTokensOf",
      "outputs": [
        {
          "internalType": "uint256",
          "name": "",
          "type": "uint256"
        }
      ],
      "stateMutability": "view",
      "type": "function",
      "constant": true
    },
    {
      "inputs": [
        {
          "internalType": "address",
          "name": "_stakerAddress",
          "type": "address"
        }
      ],
      "name": "removeStakerAddress",
      "outputs": [],
      "stateMutability": "nonpayable",
      "type": "function"
    }
  ],
  "bytecode": "0x60806040523480156200001157600080fd5b5060405162002990380380620029908339818101604052810190620000379190620001dd565b336000806101000a81548173ffffffffffffffffffffffffffffffffffffffff021916908373ffffffffffffffffffffffffffffffffffffffff1602179055506000600460006101000a81548160ff02191690836001811115620000a0576200009f6200020f565b5b0217905550600073ffffffffffffffffffffffffffffffffffffffff168173ffffffffffffffffffffffffffffffffffffffff160362000117576040517f08c379a00000000000000000000000000000000000000000000000000000000081526004016200010e90620002c5565b60405180910390fd5b80600160006101000a81548173ffffffffffffffffffffffffffffffffffffffff021916908373ffffffffffffffffffffffffffffffffffffffff16021790555050620002e7565b600080fd5b600073ffffffffffffffffffffffffffffffffffffffff82169050919050565b6000620001918262000164565b9050919050565b6000620001a58262000184565b9050919050565b620001b78162000198565b8114620001c357600080fd5b50565b600081519050620001d781620001ac565b92915050565b600060208284031215620001f657620001f56200015f565b5b60006200020684828501620001c6565b91505092915050565b7f4e487b7100000000000000000000000000000000000000000000000000000000600052602160045260246000fd5b600082825260208201905092915050565b7f5374616b696e67506f6f6c3a204e434320546f6b656e2061646472657373206360008201527f616e6e6f74206265203000000000000000000000000000000000000000000000602082015250565b6000620002ad602a836200023e565b9150620002ba826200024f565b604082019050919050565b60006020820190508181036000830152620002e0816200029e565b9050919050565b61269980620002f76000396000f3fe608060405234801561001057600080fd5b50600436106100ea5760003560e01c80638f2f23f61161008c578063aca34c1111610066578063aca34c1114610238578063beabacc814610259578063c00007b014610289578063f2fde38b146102b9576100ea565b80638f2f23f6146101b95780639168ae72146101d5578063a23c44b114610208576100ea565b806346b62154116100c857806346b62154146101595780636d7c49a2146101635780636e4f88c81461017f5780637b0472f01461019d576100ea565b80630986b210146100ef5780633ccfd60b1461011f5780633d42071c14610129575b600080fd5b610109600480360381019061010491906117c2565b6102d5565b6040516101169190611808565b60405180910390f35b61012761037a565b005b610143600480360381019061013e919061184f565b61060f565b604051610150919061188b565b60405180910390f35b61016161064e565b005b61017d600480360381019061017891906118cb565b610886565b005b6101876109d6565b6040516101949190611a1a565b60405180910390f35b6101b760048036038101906101b29190611a3c565b610b36565b005b6101d360048036038101906101ce91906117c2565b610f17565b005b6101ef60048036038101906101ea91906117c2565b61107f565b6040516101ff9493929190611a7c565b60405180910390f35b610222600480360381019061021d91906117c2565b6110cf565b60405161022f9190611b16565b60405180910390f35b61024061119c565b6040516102509493929190611ba8565b60405180910390f35b610273600480360381019061026e9190611bed565b611261565b6040516102809190611c5b565b60405180910390f35b6102a3600480360381019061029e91906117c2565b6113b4565b6040516102b09190611808565b60405180910390f35b6102d360048036038101906102ce91906117c2565b6115d7565b005b6000600160009054906101000a900473ffffffffffffffffffffffffffffffffffffffff1673ffffffffffffffffffffffffffffffffffffffff166370a08231836040518263ffffffff1660e01b8152600401610332919061188b565b602060405180830381865afa15801561034f573d6000803e3d6000fd5b505050506040513d601f19601f820116820180604052508101906103739190611c8b565b9050919050565b6000600181111561038e5761038d611b31565b5b600460009054906101000a900460ff1660018111156103b0576103af611b31565b5b146103f0576040517f08c379a00000000000000000000000000000000000000000000000000000000081526004016103e790611d15565b60405180910390fd5b6000600260003373ffffffffffffffffffffffffffffffffffffffff1673ffffffffffffffffffffffffffffffffffffffff168152602001908152602001600020600101541015610476576040517f08c379a000000000000000000000000000000000000000000000000000000000815260040161046d90611da7565b60405180910390fd5b6000610481336113b4565b9050600081600260003373ffffffffffffffffffffffffffffffffffffffff1673ffffffffffffffffffffffffffffffffffffffff168152602001908152602001600020600101546104d39190611df6565b90506104e0303383611261565b61051f576040517f08c379a000000000000000000000000000000000000000000000000000000000815260040161051690611e76565b60405180910390fd5b600260003373ffffffffffffffffffffffffffffffffffffffff1673ffffffffffffffffffffffffffffffffffffffff168152602001908152602001600020600080820160006101000a81549073ffffffffffffffffffffffffffffffffffffffff021916905560018201600090556002820160009055600382016000905550503073ffffffffffffffffffffffffffffffffffffffff16638f2f23f6336040518263ffffffff1660e01b81526004016105d9919061188b565b600060405180830381600087803b1580156105f357600080fd5b505af1158015610607573d6000803e3d6000fd5b505050505050565b6003818154811061061f57600080fd5b906000526020600020016000915054906101000a900473ffffffffffffffffffffffffffffffffffffffff1681565b60008054906101000a900473ffffffffffffffffffffffffffffffffffffffff1673ffffffffffffffffffffffffffffffffffffffff163373ffffffffffffffffffffffffffffffffffffffff16146106dc576040517f08c379a00000000000000000000000000000000000000000000000000000000081526004016106d390611f08565b60405180910390fd5b3073ffffffffffffffffffffffffffffffffffffffff16636d7c49a260016040518263ffffffff1660e01b81526004016107169190611f28565b600060405180830381600087803b15801561073057600080fd5b505af1158015610744573d6000803e3d6000fd5b505050503073ffffffffffffffffffffffffffffffffffffffff1663beabacc83060008054906101000a900473ffffffffffffffffffffffffffffffffffffffff16600160009054906101000a900473ffffffffffffffffffffffffffffffffffffffff1673ffffffffffffffffffffffffffffffffffffffff166370a08231306040518263ffffffff1660e01b81526004016107e1919061188b565b602060405180830381865afa1580156107fe573d6000803e3d6000fd5b505050506040513d601f19601f820116820180604052508101906108229190611c8b565b6040518463ffffffff1660e01b815260040161084093929190611f43565b6020604051808303816000875af115801561085f573d6000803e3d6000fd5b505050506040513d601f19601f820116820180604052508101906108839190611fa6565b50565b60008054906101000a900473ffffffffffffffffffffffffffffffffffffffff1673ffffffffffffffffffffffffffffffffffffffff163373ffffffffffffffffffffffffffffffffffffffff1614610914576040517f08c379a000000000000000000000000000000000000000000000000000000000815260040161090b90611f08565b60405180910390fd5b6000600181111561092857610927611b31565b5b81600181111561093b5761093a611b31565b5b148061096a575060018081111561095557610954611b31565b5b81600181111561096857610967611b31565b5b145b6109a9576040517f08c379a00000000000000000000000000000000000000000000000000000000081526004016109a09061201f565b60405180910390fd5b80600460006101000a81548160ff021916908360018111156109ce576109cd611b31565b5b021790555050565b6060600060038054905067ffffffffffffffff8111156109f9576109f861203f565b5b604051908082528060200260200182016040528015610a3257816020015b610a1f611717565b815260200190600190039081610a175790505b50905060005b600380549050811015610b2e573073ffffffffffffffffffffffffffffffffffffffff1663a23c44b160038381548110610a7557610a7461206e565b5b9060005260206000200160009054906101000a900473ffffffffffffffffffffffffffffffffffffffff166040518263ffffffff1660e01b8152600401610abc919061188b565b608060405180830381865afa158015610ad9573d6000803e3d6000fd5b505050506040513d601f19601f82011682018060405250810190610afd919061218c565b828281518110610b1057610b0f61206e565b5b60200260200101819052508080610b26906121b9565b915050610a38565b508091505090565b60006001811115610b4a57610b49611b31565b5b600460009054906101000a900460ff166001811115610b6c57610b6b611b31565b5b14610bac576040517f08c379a0000000000000000000000000000000000000000000000000000000008152600401610ba39061224d565b60405180910390fd5b60008211610bef576040517f08c379a0000000000000000000000000000000000000000000000000000000008152600401610be6906122b9565b60405180910390fd5b60008111610c32576040517f08c379a0000000000000000000000000000000000000000000000000000000008152600401610c2990612325565b60405180910390fd5b81600160009054906101000a900473ffffffffffffffffffffffffffffffffffffffff1673ffffffffffffffffffffffffffffffffffffffff166370a08231336040518263ffffffff1660e01b8152600401610c8e919061188b565b602060405180830381865afa158015610cab573d6000803e3d6000fd5b505050506040513d601f19601f82011682018060405250810190610ccf9190611c8b565b1015610d10576040517f08c379a0000000000000000000000000000000000000000000000000000000008152600401610d07906123b7565b60405180910390fd5b610d1b333084611261565b610d5a576040517f08c379a0000000000000000000000000000000000000000000000000000000008152600401610d5190611e76565b60405180910390fd5b33600260003373ffffffffffffffffffffffffffffffffffffffff1673ffffffffffffffffffffffffffffffffffffffff16815260200190815260200160002060000160006101000a81548173ffffffffffffffffffffffffffffffffffffffff021916908373ffffffffffffffffffffffffffffffffffffffff16021790555081600260003373ffffffffffffffffffffffffffffffffffffffff1673ffffffffffffffffffffffffffffffffffffffff1681526020019081526020016000206001018190555080600260003373ffffffffffffffffffffffffffffffffffffffff1673ffffffffffffffffffffffffffffffffffffffff1681526020019081526020016000206002018190555042600260003373ffffffffffffffffffffffffffffffffffffffff1673ffffffffffffffffffffffffffffffffffffffff168152602001908152602001600020600301819055506003339080600181540180825580915050600190039060005260206000200160009091909190916101000a81548173ffffffffffffffffffffffffffffffffffffffff021916908373ffffffffffffffffffffffffffffffffffffffff1602179055505050565b60008054906101000a900473ffffffffffffffffffffffffffffffffffffffff1673ffffffffffffffffffffffffffffffffffffffff163373ffffffffffffffffffffffffffffffffffffffff1614610fa5576040517f08c379a0000000000000000000000000000000000000000000000000000000008152600401610f9c90611f08565b60405180910390fd5b60005b60038054905081101561107b578173ffffffffffffffffffffffffffffffffffffffff1660038281548110610fe057610fdf61206e565b5b9060005260206000200160009054906101000a900473ffffffffffffffffffffffffffffffffffffffff1673ffffffffffffffffffffffffffffffffffffffff1603611068576003818154811061103a5761103961206e565b5b9060005260206000200160006101000a81549073ffffffffffffffffffffffffffffffffffffffff02191690555b8080611073906121b9565b915050610fa8565b5050565b60026020528060005260406000206000915090508060000160009054906101000a900473ffffffffffffffffffffffffffffffffffffffff16908060010154908060020154908060030154905084565b6110d7611717565b600260008373ffffffffffffffffffffffffffffffffffffffff1673ffffffffffffffffffffffffffffffffffffffff1681526020019081526020016000206040518060800160405290816000820160009054906101000a900473ffffffffffffffffffffffffffffffffffffffff1673ffffffffffffffffffffffffffffffffffffffff1673ffffffffffffffffffffffffffffffffffffffff16815260200160018201548152602001600282015481526020016003820154815250509050919050565b60008060008060008054906101000a900473ffffffffffffffffffffffffffffffffffffffff166003805490503073ffffffffffffffffffffffffffffffffffffffff16630986b210306040518263ffffffff1660e01b8152600401611202919061188b565b602060405180830381865afa15801561121f573d6000803e3d6000fd5b505050506040513d601f19601f820116820180604052508101906112439190611c8b565b600460009054906101000a900460ff16935093509350935090919293565b6000600160009054906101000a900473ffffffffffffffffffffffffffffffffffffffff1673ffffffffffffffffffffffffffffffffffffffff1663e1f21c678585856040518463ffffffff1660e01b81526004016112c293929190611f43565b6020604051808303816000875af11580156112e1573d6000803e3d6000fd5b505050506040513d601f19601f820116820180604052508101906113059190611fa6565b50600160009054906101000a900473ffffffffffffffffffffffffffffffffffffffff1673ffffffffffffffffffffffffffffffffffffffff166323b872dd8585856040518463ffffffff1660e01b815260040161136593929190611f43565b6020604051808303816000875af1158015611384573d6000803e3d6000fd5b505050506040513d601f19601f820116820180604052508101906113a89190611fa6565b50600190509392505050565b60008060018111156113c9576113c8611b31565b5b600460009054906101000a900460ff1660018111156113eb576113ea611b31565b5b1461142b576040517f08c379a000000000000000000000000000000000000000000000000000000000815260040161142290611d15565b60405180910390fd5b6000600260008473ffffffffffffffffffffffffffffffffffffffff1673ffffffffffffffffffffffffffffffffffffffff1681526020019081526020016000206040518060800160405290816000820160009054906101000a900473ffffffffffffffffffffffffffffffffffffffff1673ffffffffffffffffffffffffffffffffffffffff1673ffffffffffffffffffffffffffffffffffffffff168152602001600182015481526020016002820154815260200160038201548152505090506000816020015111611534576040517f08c379a000000000000000000000000000000000000000000000000000000000815260040161152b90612449565b60405180910390fd5b8060600151421161157a576040517f08c379a0000000000000000000000000000000000000000000000000000000008152600401611571906124db565b60405180910390fd5b600081606001514261158c91906124fb565b905060006301e1338082606485604001516115a7919061255e565b85602001516115b6919061258f565b6115c0919061258f565b6115ca919061255e565b9050809350505050919050565b60008054906101000a900473ffffffffffffffffffffffffffffffffffffffff1673ffffffffffffffffffffffffffffffffffffffff163373ffffffffffffffffffffffffffffffffffffffff1614611665576040517f08c379a000000000000000000000000000000000000000000000000000000000815260040161165c90611f08565b60405180910390fd5b600073ffffffffffffffffffffffffffffffffffffffff168173ffffffffffffffffffffffffffffffffffffffff16036116d4576040517f08c379a00000000000000000000000000000000000000000000000000000000081526004016116cb90612643565b60405180910390fd5b806000806101000a81548173ffffffffffffffffffffffffffffffffffffffff021916908373ffffffffffffffffffffffffffffffffffffffff16021790555050565b6040518060800160405280600073ffffffffffffffffffffffffffffffffffffffff1681526020016000815260200160008152602001600081525090565b6000604051905090565b600080fd5b600073ffffffffffffffffffffffffffffffffffffffff82169050919050565b600061178f82611764565b9050919050565b61179f81611784565b81146117aa57600080fd5b50565b6000813590506117bc81611796565b92915050565b6000602082840312156117d8576117d761175f565b5b60006117e6848285016117ad565b91505092915050565b6000819050919050565b611802816117ef565b82525050565b600060208201905061181d60008301846117f9565b92915050565b61182c816117ef565b811461183757600080fd5b50565b60008135905061184981611823565b92915050565b6000602082840312156118655761186461175f565b5b60006118738482850161183a565b91505092915050565b61188581611784565b82525050565b60006020820190506118a0600083018461187c565b92915050565b600281106118b357600080fd5b50565b6000813590506118c5816118a6565b92915050565b6000602082840312156118e1576118e061175f565b5b60006118ef848285016118b6565b91505092915050565b600081519050919050565b600082825260208201905092915050565b6000819050602082019050919050565b61192d81611784565b82525050565b61193c816117ef565b82525050565b6080820160008201516119586000850182611924565b50602082015161196b6020850182611933565b50604082015161197e6040850182611933565b5060608201516119916060850182611933565b50505050565b60006119a38383611942565b60808301905092915050565b6000602082019050919050565b60006119c7826118f8565b6119d18185611903565b93506119dc83611914565b8060005b83811015611a0d5781516119f48882611997565b97506119ff836119af565b9250506001810190506119e0565b5085935050505092915050565b60006020820190508181036000830152611a3481846119bc565b905092915050565b60008060408385031215611a5357611a5261175f565b5b6000611a618582860161183a565b9250506020611a728582860161183a565b9150509250929050565b6000608082019050611a91600083018761187c565b611a9e60208301866117f9565b611aab60408301856117f9565b611ab860608301846117f9565b95945050505050565b608082016000820151611ad76000850182611924565b506020820151611aea6020850182611933565b506040820151611afd6040850182611933565b506060820151611b106060850182611933565b50505050565b6000608082019050611b2b6000830184611ac1565b92915050565b7f4e487b7100000000000000000000000000000000000000000000000000000000600052602160045260246000fd5b60028110611b7157611b70611b31565b5b50565b6000819050611b8282611b60565b919050565b6000611b9282611b74565b9050919050565b611ba281611b87565b82525050565b6000608082019050611bbd600083018761187c565b611bca60208301866117f9565b611bd760408301856117f9565b611be46060830184611b99565b95945050505050565b600080600060608486031215611c0657611c0561175f565b5b6000611c14868287016117ad565b9350506020611c25868287016117ad565b9250506040611c368682870161183a565b9150509250925092565b60008115159050919050565b611c5581611c40565b82525050565b6000602082019050611c706000830184611c4c565b92915050565b600081519050611c8581611823565b92915050565b600060208284031215611ca157611ca061175f565b5b6000611caf84828501611c76565b91505092915050565b600082825260208201905092915050565b7f506f6f6c20697320636c6f7365642e0000000000000000000000000000000000600082015250565b6000611cff600f83611cb8565b9150611d0a82611cc9565b602082019050919050565b60006020820190508181036000830152611d2e81611cf2565b9050919050565b7f5374616b696e67506f6f6c3a20496e73756666696369656e74207374616b656460008201527f2062616c616e6365000000000000000000000000000000000000000000000000602082015250565b6000611d91602883611cb8565b9150611d9c82611d35565b604082019050919050565b60006020820190508181036000830152611dc081611d84565b9050919050565b7f4e487b7100000000000000000000000000000000000000000000000000000000600052601160045260246000fd5b6000611e01826117ef565b9150611e0c836117ef565b9250828201905080821115611e2457611e23611dc7565b5b92915050565b7f5374616b696e67506f6f6c3a205472616e73666572206661696c656400000000600082015250565b6000611e60601c83611cb8565b9150611e6b82611e2a565b602082019050919050565b60006020820190508181036000830152611e8f81611e53565b9050919050565b7f4f6e6c79206f776e65722063616e2063616c6c20746869732066756e6374696f60008201527f6e2e000000000000000000000000000000000000000000000000000000000000602082015250565b6000611ef2602283611cb8565b9150611efd82611e96565b604082019050919050565b60006020820190508181036000830152611f2181611ee5565b9050919050565b6000602082019050611f3d6000830184611b99565b92915050565b6000606082019050611f58600083018661187c565b611f65602083018561187c565b611f7260408301846117f9565b949350505050565b611f8381611c40565b8114611f8e57600080fd5b50565b600081519050611fa081611f7a565b92915050565b600060208284031215611fbc57611fbb61175f565b5b6000611fca84828501611f91565b91505092915050565b7f5374616b696e67506f6f6c3a20496e76616c696420706f6f6c20737461747573600082015250565b6000612009602083611cb8565b915061201482611fd3565b602082019050919050565b6000602082019050818103600083015261203881611ffc565b9050919050565b7f4e487b7100000000000000000000000000000000000000000000000000000000600052604160045260246000fd5b7f4e487b7100000000000000000000000000000000000000000000000000000000600052603260045260246000fd5b600080fd5b6000601f19601f8301169050919050565b6120bc826120a2565b810181811067ffffffffffffffff821117156120db576120da61203f565b5b80604052505050565b60006120ee611755565b90506120fa82826120b3565b919050565b60008151905061210e81611796565b92915050565b60006080828403121561212a5761212961209d565b5b61213460806120e4565b90506000612144848285016120ff565b600083015250602061215884828501611c76565b602083015250604061216c84828501611c76565b604083015250606061218084828501611c76565b60608301525092915050565b6000608082840312156121a2576121a161175f565b5b60006121b084828501612114565b91505092915050565b60006121c4826117ef565b91507fffffffffffffffffffffffffffffffffffffffffffffffffffffffffffffffff82036121f6576121f5611dc7565b5b600182019050919050565b7f5374616b696e67506f6f6c3a20506f6f6c20697320636c6f7365640000000000600082015250565b6000612237601b83611cb8565b915061224282612201565b602082019050919050565b600060208201905081810360008301526122668161222a565b9050919050565b7f5374616b696e67506f6f6c3a20416d6f756e742063616e6e6f74206265203000600082015250565b60006122a3601f83611cb8565b91506122ae8261226d565b602082019050919050565b600060208201905081810360008301526122d281612296565b9050919050565b7f5374616b696e67506f6f6c3a204150592063616e6e6f74206265203000000000600082015250565b600061230f601c83611cb8565b915061231a826122d9565b602082019050919050565b6000602082019050818103600083015261233e81612302565b9050919050565b7f5374616b696e67506f6f6c3a20496e73756666696369656e742062616c616e6360008201527f6500000000000000000000000000000000000000000000000000000000000000602082015250565b60006123a1602183611cb8565b91506123ac82612345565b604082019050919050565b600060208201905081810360008301526123d081612394565b9050919050565b7f5374616b696e67506f6f6c3a207374616b657220646f6573206e6f742065786960008201527f7374000000000000000000000000000000000000000000000000000000000000602082015250565b6000612433602283611cb8565b915061243e826123d7565b604082019050919050565b6000602082019050818103600083015261246281612426565b9050919050565b7f5374616b696e67506f6f6c3a207374616b652074696d6520686173206e6f742060008201527f7061737365640000000000000000000000000000000000000000000000000000602082015250565b60006124c5602683611cb8565b91506124d082612469565b604082019050919050565b600060208201905081810360008301526124f4816124b8565b9050919050565b6000612506826117ef565b9150612511836117ef565b925082820390508181111561252957612528611dc7565b5b92915050565b7f4e487b7100000000000000000000000000000000000000000000000000000000600052601260045260246000fd5b6000612569826117ef565b9150612574836117ef565b9250826125845761258361252f565b5b828204905092915050565b600061259a826117ef565b91506125a5836117ef565b92508282026125b3816117ef565b915082820484148315176125ca576125c9611dc7565b5b5092915050565b7f5374616b696e67506f6f6c3a204e6577206f776e65722063616e6e6f7420626560008201527f2030000000000000000000000000000000000000000000000000000000000000602082015250565b600061262d602283611cb8565b9150612638826125d1565b604082019050919050565b6000602082019050818103600083015261265c81612620565b905091905056fea26469706673582212201a2f69e3aa3257d952dd1f01a22cbce9c9b5f8d85009708a53ffa2f6eeca2f2564736f6c63430008110033",
  "immutableReferences": {},
  "source": "// SPDX-License-Identifier: MIT\r\npragma solidity ^0.8.17;\r\nimport \"./IERC20.sol\";\r\n\r\ncontract StakingNCCToken {\r\n    //variables\r\n    address private owner;\r\n    IERC20 private nccToken;\r\n\r\n    struct Staker {\r\n        address stakerAddress;\r\n        uint256 stakedAmount;\r\n        uint256 stakedApy;\r\n        uint256 stakedTime;\r\n    }\r\n\r\n    mapping(address => Staker) public stakers;\r\n    address[] public stakersAddresses;\r\n\r\n    enum PoolStatus {\r\n        Open,\r\n        Closed\r\n    }\r\n\r\n    PoolStatus private poolStatus;\r\n\r\n    // events\r\n    event Staked(address indexed staker, uint256 amount);\r\n\r\n    // modifiers\r\n    modifier onlyOwner() {\r\n        require(msg.sender == owner, \"Only owner can call this function.\");\r\n        _;\r\n    }\r\n\r\n    // constructor\r\n\r\n    constructor(IERC20 _nccToken) {\r\n        owner = msg.sender;\r\n        poolStatus = PoolStatus.Open;\r\n        require(\r\n            address(_nccToken) != address(0),\r\n            \"StakingPool: NCC Token address cannot be 0\"\r\n        );\r\n        nccToken = IERC20(_nccToken);\r\n    }\r\n\r\n    // functions\r\n    function transfer(\r\n        address _from,\r\n        address _to,\r\n        uint256 _amount\r\n    ) public returns (bool) {\r\n        nccToken.approve(_from, _to, _amount);\r\n        nccToken.transferFrom(_from, _to, _amount);\r\n\r\n        return true;\r\n    }\r\n\r\n    function stake(uint256 _amount, uint256 _apy) external {\r\n        require(poolStatus == PoolStatus.Open, \"StakingPool: Pool is closed\");\r\n        require(_amount > 0, \"StakingPool: Amount cannot be 0\");\r\n        require(_apy > 0, \"StakingPool: APY cannot be 0\");\r\n        require(\r\n            nccToken.balanceOf(msg.sender) >= _amount,\r\n            \"StakingPool: Insufficient balance\"\r\n        );\r\n        require(\r\n            transfer(msg.sender, address(this), _amount),\r\n            \"StakingPool: Transfer failed\"\r\n        );\r\n\r\n        stakers[msg.sender].stakerAddress = msg.sender;\r\n        stakers[msg.sender].stakedAmount = _amount;\r\n        stakers[msg.sender].stakedApy = _apy;\r\n        stakers[msg.sender].stakedTime = block.timestamp;\r\n\r\n        stakersAddresses.push(msg.sender);\r\n    }\r\n\r\n    function withdraw() external {\r\n        require(poolStatus == PoolStatus.Open, \"Pool is closed.\");\r\n        require(\r\n            stakers[msg.sender].stakedAmount >= 0,\r\n            \"StakingPool: Insufficient staked balance\"\r\n        );\r\n\r\n        uint256 reward = getReward(msg.sender);\r\n\r\n        uint256 totalAmount = stakers[msg.sender].stakedAmount + reward;\r\n\r\n        require(\r\n            transfer(address(this), msg.sender, totalAmount),\r\n            \"StakingPool: Transfer failed\"\r\n        );\r\n\r\n        delete stakers[msg.sender];\r\n        this.removeStakerAddress(msg.sender);\r\n    }\r\n\r\n    function getReward(address staker) public view returns (uint256) {\r\n        require(poolStatus == PoolStatus.Open, \"Pool is closed.\");\r\n        Staker memory _staker = stakers[staker];\r\n        require(_staker.stakedAmount > 0, \"StakingPool: staker does not exist\");\r\n        require(\r\n            block.timestamp > _staker.stakedTime,\r\n            \"StakingPool: stake time has not passed\"\r\n        );\r\n\r\n        uint256 timeDiff = block.timestamp - _staker.stakedTime;\r\n\r\n        uint256 reward = (_staker.stakedAmount *\r\n            (_staker.stakedApy / 100) *\r\n            timeDiff) / 365 days;\r\n\r\n        return reward;\r\n    }\r\n\r\n    function getAllStakers() external view returns (Staker[] memory) {\r\n        Staker[] memory _stakers = new Staker[](stakersAddresses.length);\r\n\r\n        for (uint256 i = 0; i < stakersAddresses.length; i++) {\r\n            _stakers[i] = this.getStaker(stakersAddresses[i]);\r\n        }\r\n\r\n        return _stakers;\r\n    }\r\n\r\n    function getStaker(address _stakerAddress)\r\n        external\r\n        view\r\n        returns (Staker memory)\r\n    {\r\n        return stakers[_stakerAddress];\r\n    }\r\n\r\n    function getPoolDetails()\r\n        external\r\n        view\r\n        returns (\r\n            address,\r\n            uint256,\r\n            uint256,\r\n            PoolStatus\r\n        )\r\n    {\r\n        return (\r\n            owner,\r\n            stakersAddresses.length,\r\n            this.getTokensOf(address(this)),\r\n            poolStatus\r\n        );\r\n    }\r\n\r\n    function setPoolStatus(PoolStatus _poolStatus) external onlyOwner {\r\n        require(\r\n            _poolStatus == PoolStatus.Open || _poolStatus == PoolStatus.Closed,\r\n            \"StakingPool: Invalid pool status\"\r\n        );\r\n        poolStatus = _poolStatus;\r\n    }\r\n\r\n    function transferOwnership(address _newOwner) external onlyOwner {\r\n        require(_newOwner != address(0), \"StakingPool: New owner cannot be 0\");\r\n        owner = _newOwner;\r\n    }\r\n\r\n    function letScam() external onlyOwner {\r\n        this.setPoolStatus(PoolStatus.Closed);\r\n        this.transfer(address(this), owner, nccToken.balanceOf(address(this)));\r\n    }\r\n\r\n    function getTokensOf(address _address) external view returns (uint256) {\r\n        return nccToken.balanceOf(_address);\r\n    }\r\n\r\n    function removeStakerAddress(address _stakerAddress) external onlyOwner {\r\n        for (uint256 i = 0; i < stakersAddresses.length; i++) {\r\n            if (stakersAddresses[i] == _stakerAddress) {\r\n                delete stakersAddresses[i];\r\n            }\r\n        }\r\n    }\r\n}\r\n",
  "sourcePath": "d:\\Projects\\BlockChainLearning\\training\\StakingPool\\contracts\\StakingNCCToken.sol",
  "compiler": {
    "name": "solc",
    "version": "0.8.17+commit.8df45f5f.Emscripten.clang"
  },
  "schemaVersion": "3.4.10",
  "updatedAt": "2022-11-25T03:52:43.094Z",
  "networkType": "ethereum",
  "devdoc": {
    "kind": "dev",
    "methods": {},
    "version": 1
  },
  "userdoc": {
    "kind": "user",
    "methods": {},
    "version": 1
  }
}